{
  "_format": "hh-sol-artifact-1",
  "contractName": "MyTokens",
  "sourceName": "contracts/MyTokens.sol",
  "abi": [
    {
      "inputs": [],
      "stateMutability": "nonpayable",
      "type": "constructor"
    },
    {
      "anonymous": false,
      "inputs": [
        {
          "indexed": true,
          "internalType": "address",
          "name": "account",
          "type": "address"
        },
        {
          "indexed": true,
          "internalType": "address",
          "name": "operator",
          "type": "address"
        },
        {
          "indexed": false,
          "internalType": "bool",
          "name": "approved",
          "type": "bool"
        }
      ],
      "name": "ApprovalForAll",
      "type": "event"
    },
    {
      "anonymous": false,
      "inputs": [
        {
          "indexed": true,
          "internalType": "address",
          "name": "operator",
          "type": "address"
        },
        {
          "indexed": true,
          "internalType": "address",
          "name": "from",
          "type": "address"
        },
        {
          "indexed": true,
          "internalType": "address",
          "name": "to",
          "type": "address"
        },
        {
          "indexed": false,
          "internalType": "uint256[]",
          "name": "ids",
          "type": "uint256[]"
        },
        {
          "indexed": false,
          "internalType": "uint256[]",
          "name": "values",
          "type": "uint256[]"
        }
      ],
      "name": "TransferBatch",
      "type": "event"
    },
    {
      "anonymous": false,
      "inputs": [
        {
          "indexed": true,
          "internalType": "address",
          "name": "operator",
          "type": "address"
        },
        {
          "indexed": true,
          "internalType": "address",
          "name": "from",
          "type": "address"
        },
        {
          "indexed": true,
          "internalType": "address",
          "name": "to",
          "type": "address"
        },
        {
          "indexed": false,
          "internalType": "uint256",
          "name": "id",
          "type": "uint256"
        },
        {
          "indexed": false,
          "internalType": "uint256",
          "name": "value",
          "type": "uint256"
        }
      ],
      "name": "TransferSingle",
      "type": "event"
    },
    {
      "anonymous": false,
      "inputs": [
        {
          "indexed": false,
          "internalType": "string",
          "name": "value",
          "type": "string"
        },
        {
          "indexed": true,
          "internalType": "uint256",
          "name": "id",
          "type": "uint256"
        }
      ],
      "name": "URI",
      "type": "event"
    },
    {
      "anonymous": false,
      "inputs": [
        {
          "indexed": false,
          "internalType": "address",
          "name": "_transferredTo",
          "type": "address"
        },
        {
          "indexed": false,
          "internalType": "uint256[]",
          "name": "_id",
          "type": "uint256[]"
        },
        {
          "indexed": false,
          "internalType": "uint256[]",
          "name": "_amount",
          "type": "uint256[]"
        }
      ],
      "name": "batchTransferSuccessful",
      "type": "event"
    },
    {
      "anonymous": false,
      "inputs": [
        {
          "indexed": false,
          "internalType": "address",
          "name": "_transferredTo",
          "type": "address"
        },
        {
          "indexed": false,
          "internalType": "uint256",
          "name": "_id",
          "type": "uint256"
        },
        {
          "indexed": false,
          "internalType": "uint256",
          "name": "_amount",
          "type": "uint256"
        }
      ],
      "name": "transferSuccessful",
      "type": "event"
    },
    {
      "inputs": [],
      "name": "ELEMENTAL_MANIPULATION",
      "outputs": [
        {
          "internalType": "uint256",
          "name": "",
          "type": "uint256"
        }
      ],
      "stateMutability": "view",
      "type": "function"
    },
    {
      "inputs": [],
      "name": "IMMORTALITY",
      "outputs": [
        {
          "internalType": "uint256",
          "name": "",
          "type": "uint256"
        }
      ],
      "stateMutability": "view",
      "type": "function"
    },
    {
      "inputs": [],
      "name": "INVISIBILITY",
      "outputs": [
        {
          "internalType": "uint256",
          "name": "",
          "type": "uint256"
        }
      ],
      "stateMutability": "view",
      "type": "function"
    },
    {
      "inputs": [],
      "name": "MIND_CONTROL",
      "outputs": [
        {
          "internalType": "uint256",
          "name": "",
          "type": "uint256"
        }
      ],
      "stateMutability": "view",
      "type": "function"
    },
    {
      "inputs": [],
      "name": "TELEKINESIS",
      "outputs": [
        {
          "internalType": "uint256",
          "name": "",
          "type": "uint256"
        }
      ],
      "stateMutability": "view",
      "type": "function"
    },
    {
      "inputs": [],
      "name": "WIZARD",
      "outputs": [
        {
          "internalType": "uint256",
          "name": "",
          "type": "uint256"
        }
      ],
      "stateMutability": "view",
      "type": "function"
    },
    {
      "inputs": [
        {
          "internalType": "address",
          "name": "account",
          "type": "address"
        },
        {
          "internalType": "uint256",
          "name": "id",
          "type": "uint256"
        }
      ],
      "name": "balanceOf",
      "outputs": [
        {
          "internalType": "uint256",
          "name": "",
          "type": "uint256"
        }
      ],
      "stateMutability": "view",
      "type": "function"
    },
    {
      "inputs": [
        {
          "internalType": "address[]",
          "name": "accounts",
          "type": "address[]"
        },
        {
          "internalType": "uint256[]",
          "name": "ids",
          "type": "uint256[]"
        }
      ],
      "name": "balanceOfBatch",
      "outputs": [
        {
          "internalType": "uint256[]",
          "name": "",
          "type": "uint256[]"
        }
      ],
      "stateMutability": "view",
      "type": "function"
    },
    {
      "inputs": [
        {
          "internalType": "address",
          "name": "account",
          "type": "address"
        },
        {
          "internalType": "address",
          "name": "operator",
          "type": "address"
        }
      ],
      "name": "isApprovedForAll",
      "outputs": [
        {
          "internalType": "bool",
          "name": "",
          "type": "bool"
        }
      ],
      "stateMutability": "view",
      "type": "function"
    },
    {
      "inputs": [
        {
          "internalType": "address",
          "name": "from",
          "type": "address"
        },
        {
          "internalType": "address",
          "name": "to",
          "type": "address"
        },
        {
          "internalType": "uint256[]",
          "name": "ids",
          "type": "uint256[]"
        },
        {
          "internalType": "uint256[]",
          "name": "amounts",
          "type": "uint256[]"
        },
        {
          "internalType": "bytes",
          "name": "data",
          "type": "bytes"
        }
      ],
      "name": "safeBatchTransferFrom",
      "outputs": [],
      "stateMutability": "nonpayable",
      "type": "function"
    },
    {
      "inputs": [
        {
          "internalType": "address",
          "name": "from",
          "type": "address"
        },
        {
          "internalType": "address",
          "name": "to",
          "type": "address"
        },
        {
          "internalType": "uint256",
          "name": "id",
          "type": "uint256"
        },
        {
          "internalType": "uint256",
          "name": "amount",
          "type": "uint256"
        },
        {
          "internalType": "bytes",
          "name": "data",
          "type": "bytes"
        }
      ],
      "name": "safeTransferFrom",
      "outputs": [],
      "stateMutability": "nonpayable",
      "type": "function"
    },
    {
      "inputs": [
        {
          "internalType": "address",
          "name": "operator",
          "type": "address"
        },
        {
          "internalType": "bool",
          "name": "approved",
          "type": "bool"
        }
      ],
      "name": "setApprovalForAll",
      "outputs": [],
      "stateMutability": "nonpayable",
      "type": "function"
    },
    {
      "inputs": [
        {
          "internalType": "bytes4",
          "name": "interfaceId",
          "type": "bytes4"
        }
      ],
      "name": "supportsInterface",
      "outputs": [
        {
          "internalType": "bool",
          "name": "",
          "type": "bool"
        }
      ],
      "stateMutability": "view",
      "type": "function"
    },
    {
      "inputs": [
        {
          "internalType": "address",
          "name": "_from",
          "type": "address"
        },
        {
          "internalType": "address",
          "name": "_to",
          "type": "address"
        },
        {
          "internalType": "uint256",
          "name": "_id",
          "type": "uint256"
        },
        {
          "internalType": "uint256",
          "name": "_amount",
          "type": "uint256"
        },
        {
          "internalType": "string",
          "name": "_data",
          "type": "string"
        }
      ],
      "name": "transferTokens",
      "outputs": [],
      "stateMutability": "nonpayable",
      "type": "function"
    },
    {
      "inputs": [
        {
          "internalType": "address",
          "name": "_from",
          "type": "address"
        },
        {
          "internalType": "address",
          "name": "_to",
          "type": "address"
        },
        {
          "internalType": "uint256[]",
          "name": "_id",
          "type": "uint256[]"
        },
        {
          "internalType": "uint256[]",
          "name": "_amount",
          "type": "uint256[]"
        },
        {
          "internalType": "string",
          "name": "_data",
          "type": "string"
        }
      ],
      "name": "transferTokensInBatch",
      "outputs": [],
      "stateMutability": "nonpayable",
      "type": "function"
    },
    {
      "inputs": [
        {
          "internalType": "uint256",
          "name": "",
          "type": "uint256"
        }
      ],
      "name": "uri",
      "outputs": [
        {
          "internalType": "string",
          "name": "",
          "type": "string"
        }
      ],
      "stateMutability": "view",
      "type": "function"
    }
  ],
  "bytecode": "0x60806040523480156200001157600080fd5b506040518060800160405280605a815260200162003926605a91396200003d816200012760201b60201c565b50620000643360006103e8604051806020016040528060008152506200013c60201b60201c565b6200008a3360016103e8604051806020016040528060008152506200013c60201b60201c565b620000b03360026103e8604051806020016040528060008152506200013c60201b60201c565b620000d63360036103e8604051806020016040528060008152506200013c60201b60201c565b620000fc3360046103e8604051806020016040528060008152506200013c60201b60201c565b620001213360056001604051806020016040528060008152506200013c60201b60201c565b62000f32565b806002908162000138919062000852565b5050565b600073ffffffffffffffffffffffffffffffffffffffff168473ffffffffffffffffffffffffffffffffffffffff1603620001ae576040517f08c379a0000000000000000000000000000000000000000000000000000000008152600401620001a590620009c0565b60405180910390fd5b6000620001c06200032360201b60201c565b90506000620001d5856200032b60201b60201c565b90506000620001ea856200032b60201b60201c565b90506200020383600089858589620003ac60201b60201c565b8460008088815260200190815260200160002060008973ffffffffffffffffffffffffffffffffffffffff1673ffffffffffffffffffffffffffffffffffffffff168152602001908152602001600020600082825462000264919062000a11565b925050819055508673ffffffffffffffffffffffffffffffffffffffff16600073ffffffffffffffffffffffffffffffffffffffff168473ffffffffffffffffffffffffffffffffffffffff167fc3d58168c5ae7397731d063d5bbf3d657854427343f4c083240f7aacaa2d0f628989604051620002e492919062000a5d565b60405180910390a46200030383600089858589620003b460201b60201c565b6200031a83600089898989620003bc60201b60201c565b50505050505050565b600033905090565b60606000600167ffffffffffffffff8111156200034d576200034c620005e3565b5b6040519080825280602002602001820160405280156200037c5781602001602082028036833780820191505090505b509050828160008151811062000397576200039662000a8a565b5b60200260200101818152505080915050919050565b505050505050565b505050505050565b620003e88473ffffffffffffffffffffffffffffffffffffffff16620005b560201b6200097d1760201c565b15620005ad578373ffffffffffffffffffffffffffffffffffffffff1663f23a6e6187878686866040518663ffffffff1660e01b81526004016200043195949392919062000b98565b6020604051808303816000875af19250505080156200047057506040513d601f19601f820116820180604052508101906200046d919062000c68565b60015b62000521576200047f62000ca7565b806308c379a003620004e257506200049662000d02565b80620004a35750620004e4565b806040517f08c379a0000000000000000000000000000000000000000000000000000000008152600401620004d9919062000dde565b60405180910390fd5b505b6040517f08c379a0000000000000000000000000000000000000000000000000000000008152600401620005189062000e78565b60405180910390fd5b63f23a6e6160e01b7bffffffffffffffffffffffffffffffffffffffffffffffffffffffff1916817bffffffffffffffffffffffffffffffffffffffffffffffffffffffff191614620005ab576040517f08c379a0000000000000000000000000000000000000000000000000000000008152600401620005a29062000f10565b60405180910390fd5b505b505050505050565b6000808273ffffffffffffffffffffffffffffffffffffffff163b119050919050565b600081519050919050565b7f4e487b7100000000000000000000000000000000000000000000000000000000600052604160045260246000fd5b7f4e487b7100000000000000000000000000000000000000000000000000000000600052602260045260246000fd5b600060028204905060018216806200065a57607f821691505b60208210810362000670576200066f62000612565b5b50919050565b60008190508160005260206000209050919050565b60006020601f8301049050919050565b600082821b905092915050565b600060088302620006da7fffffffffffffffffffffffffffffffffffffffffffffffffffffffffffffffff826200069b565b620006e686836200069b565b95508019841693508086168417925050509392505050565b6000819050919050565b6000819050919050565b6000620007336200072d6200072784620006fe565b62000708565b620006fe565b9050919050565b6000819050919050565b6200074f8362000712565b620007676200075e826200073a565b848454620006a8565b825550505050565b600090565b6200077e6200076f565b6200078b81848462000744565b505050565b5b81811015620007b357620007a760008262000774565b60018101905062000791565b5050565b601f8211156200080257620007cc8162000676565b620007d7846200068b565b81016020851015620007e7578190505b620007ff620007f6856200068b565b83018262000790565b50505b505050565b600082821c905092915050565b6000620008276000198460080262000807565b1980831691505092915050565b600062000842838362000814565b9150826002028217905092915050565b6200085d82620005d8565b67ffffffffffffffff811115620008795762000878620005e3565b5b62000885825462000641565b62000892828285620007b7565b600060209050601f831160018114620008ca5760008415620008b5578287015190505b620008c1858262000834565b86555062000931565b601f198416620008da8662000676565b60005b828110156200090457848901518255600182019150602085019450602081019050620008dd565b8683101562000924578489015162000920601f89168262000814565b8355505b6001600288020188555050505b505050505050565b600082825260208201905092915050565b7f455243313135353a206d696e7420746f20746865207a65726f2061646472657360008201527f7300000000000000000000000000000000000000000000000000000000000000602082015250565b6000620009a860218362000939565b9150620009b5826200094a565b604082019050919050565b60006020820190508181036000830152620009db8162000999565b9050919050565b7f4e487b7100000000000000000000000000000000000000000000000000000000600052601160045260246000fd5b600062000a1e82620006fe565b915062000a2b83620006fe565b925082820190508082111562000a465762000a45620009e2565b5b92915050565b62000a5781620006fe565b82525050565b600060408201905062000a74600083018562000a4c565b62000a83602083018462000a4c565b9392505050565b7f4e487b7100000000000000000000000000000000000000000000000000000000600052603260045260246000fd5b600073ffffffffffffffffffffffffffffffffffffffff82169050919050565b600062000ae68262000ab9565b9050919050565b62000af88162000ad9565b82525050565b600081519050919050565b600082825260208201905092915050565b60005b8381101562000b3a57808201518184015260208101905062000b1d565b60008484015250505050565b6000601f19601f8301169050919050565b600062000b648262000afe565b62000b70818562000b09565b935062000b8281856020860162000b1a565b62000b8d8162000b46565b840191505092915050565b600060a08201905062000baf600083018862000aed565b62000bbe602083018762000aed565b62000bcd604083018662000a4c565b62000bdc606083018562000a4c565b818103608083015262000bf0818462000b57565b90509695505050505050565b6000604051905090565b600080fd5b60007fffffffff0000000000000000000000000000000000000000000000000000000082169050919050565b62000c428162000c0b565b811462000c4e57600080fd5b50565b60008151905062000c628162000c37565b92915050565b60006020828403121562000c815762000c8062000c06565b5b600062000c918482850162000c51565b91505092915050565b60008160e01c9050919050565b600060033d111562000cc95760046000803e62000cc660005162000c9a565b90505b90565b62000cd78262000b46565b810181811067ffffffffffffffff8211171562000cf95762000cf8620005e3565b5b80604052505050565b600060443d1062000d9a5762000d1762000bfc565b60043d036004823e80513d602482011167ffffffffffffffff8211171562000d4157505062000d9a565b808201805167ffffffffffffffff81111562000d61575050505062000d9a565b80602083010160043d03850181111562000d8057505050505062000d9a565b62000d918260200185018662000ccc565b82955050505050505b90565b600062000daa82620005d8565b62000db6818562000939565b935062000dc881856020860162000b1a565b62000dd38162000b46565b840191505092915050565b6000602082019050818103600083015262000dfa818462000d9d565b905092915050565b7f455243313135353a207472616e7366657220746f206e6f6e2d4552433131353560008201527f526563656976657220696d706c656d656e746572000000000000000000000000602082015250565b600062000e6060348362000939565b915062000e6d8262000e02565b604082019050919050565b6000602082019050818103600083015262000e938162000e51565b9050919050565b7f455243313135353a204552433131353552656365697665722072656a6563746560008201527f6420746f6b656e73000000000000000000000000000000000000000000000000602082015250565b600062000ef860288362000939565b915062000f058262000e9a565b604082019050919050565b6000602082019050818103600083015262000f2b8162000ee9565b9050919050565b6129e48062000f426000396000f3fe608060405234801561001057600080fd5b50600436106100ff5760003560e01c806356d5eeed11610097578063ade2bec211610066578063ade2bec2146102ac578063e04bba11146102ca578063e985e9c5146102e8578063f242432a14610318576100ff565b806356d5eeed146102365780639b6107b614610254578063a22cb46514610272578063ad679f0b1461028e576100ff565b80632eb2c2d6116100d35780632eb2c2d6146101b0578063379960f3146101cc5780633e058991146101ea5780634e1273f414610206576100ff565b8062fdd58e1461010457806301ffc9a7146101345780630e89341c146101645780631773528f14610194575b600080fd5b61011e6004803603810190610119919061161a565b610334565b60405161012b9190611669565b60405180910390f35b61014e600480360381019061014991906116dc565b6103fc565b60405161015b9190611724565b60405180910390f35b61017e6004803603810190610179919061173f565b6104de565b60405161018b91906117fc565b60405180910390f35b6101ae60048036038101906101a99190611953565b610572565b005b6101ca60048036038101906101c59190611b53565b6105e6565b005b6101d4610687565b6040516101e19190611669565b60405180910390f35b61020460048036038101906101ff9190611c22565b61068c565b005b610220600480360381019061021b9190611db4565b610700565b60405161022d9190611eea565b60405180910390f35b61023e610819565b60405161024b9190611669565b60405180910390f35b61025c61081e565b6040516102699190611669565b60405180910390f35b61028c60048036038101906102879190611f38565b610823565b005b610296610839565b6040516102a39190611669565b60405180910390f35b6102b461083e565b6040516102c19190611669565b60405180910390f35b6102d2610843565b6040516102df9190611669565b60405180910390f35b61030260048036038101906102fd9190611f78565b610848565b60405161030f9190611724565b60405180910390f35b610332600480360381019061032d9190611fb8565b6108dc565b005b60008073ffffffffffffffffffffffffffffffffffffffff168373ffffffffffffffffffffffffffffffffffffffff16036103a4576040517f08c379a000000000000000000000000000000000000000000000000000000000815260040161039b906120c1565b60405180910390fd5b60008083815260200190815260200160002060008473ffffffffffffffffffffffffffffffffffffffff1673ffffffffffffffffffffffffffffffffffffffff16815260200190815260200160002054905092915050565b60007fd9b67a26000000000000000000000000000000000000000000000000000000007bffffffffffffffffffffffffffffffffffffffffffffffffffffffff1916827bffffffffffffffffffffffffffffffffffffffffffffffffffffffff191614806104c757507f0e89341c000000000000000000000000000000000000000000000000000000007bffffffffffffffffffffffffffffffffffffffffffffffffffffffff1916827bffffffffffffffffffffffffffffffffffffffffffffffffffffffff1916145b806104d757506104d6826109a0565b5b9050919050565b6060600280546104ed90612110565b80601f016020809104026020016040519081016040528092919081815260200182805461051990612110565b80156105665780601f1061053b57610100808354040283529160200191610566565b820191906000526020600020905b81548152906001019060200180831161054957829003601f168201915b50505050509050919050565b60008160405160200161058591906117fc565b60405160208183030381529060405290506105a38686868685610a0a565b7f75099b82a34e58cb62b625152d7b21b1a2c09e274782004155e5f37efc6f8c378585856040516105d693929190612150565b60405180910390a1505050505050565b6105ee610ca5565b73ffffffffffffffffffffffffffffffffffffffff168573ffffffffffffffffffffffffffffffffffffffff16148061063457506106338561062e610ca5565b610848565b5b610673576040517f08c379a000000000000000000000000000000000000000000000000000000000815260040161066a906121f9565b60405180910390fd5b6106808585858585610cad565b5050505050565b600281565b60008160405160200161069f91906117fc565b60405160208183030381529060405290506106bd8686868685610cad565b7f23c636edd4ba8226fff5c3b2dd5368be5150be47096bc2f1474cd751e7c50fa58585856040516106f093929190612219565b60405180910390a1505050505050565b60608151835114610746576040517f08c379a000000000000000000000000000000000000000000000000000000000815260040161073d906122d0565b60405180910390fd5b6000835167ffffffffffffffff81111561076357610762611828565b5b6040519080825280602002602001820160405280156107915781602001602082028036833780820191505090505b50905060005b845181101561080e576107de8582815181106107b6576107b56122f0565b5b60200260200101518583815181106107d1576107d06122f0565b5b6020026020010151610334565b8282815181106107f1576107f06122f0565b5b602002602001018181525050806108079061234e565b9050610797565b508091505092915050565b600481565b600381565b61083561082e610ca5565b8383610fce565b5050565b600081565b600181565b600581565b6000600160008473ffffffffffffffffffffffffffffffffffffffff1673ffffffffffffffffffffffffffffffffffffffff16815260200190815260200160002060008373ffffffffffffffffffffffffffffffffffffffff1673ffffffffffffffffffffffffffffffffffffffff16815260200190815260200160002060009054906101000a900460ff16905092915050565b6108e4610ca5565b73ffffffffffffffffffffffffffffffffffffffff168573ffffffffffffffffffffffffffffffffffffffff16148061092a575061092985610924610ca5565b610848565b5b610969576040517f08c379a0000000000000000000000000000000000000000000000000000000008152600401610960906121f9565b60405180910390fd5b6109768585858585610a0a565b5050505050565b6000808273ffffffffffffffffffffffffffffffffffffffff163b119050919050565b60007f01ffc9a7000000000000000000000000000000000000000000000000000000007bffffffffffffffffffffffffffffffffffffffffffffffffffffffff1916827bffffffffffffffffffffffffffffffffffffffffffffffffffffffff1916149050919050565b600073ffffffffffffffffffffffffffffffffffffffff168473ffffffffffffffffffffffffffffffffffffffff1603610a79576040517f08c379a0000000000000000000000000000000000000000000000000000000008152600401610a7090612408565b60405180910390fd5b6000610a83610ca5565b90506000610a908561113a565b90506000610a9d8561113a565b9050610aad8389898585896111b4565b600080600088815260200190815260200160002060008a73ffffffffffffffffffffffffffffffffffffffff1673ffffffffffffffffffffffffffffffffffffffff16815260200190815260200160002054905085811015610b44576040517f08c379a0000000000000000000000000000000000000000000000000000000008152600401610b3b9061249a565b60405180910390fd5b85810360008089815260200190815260200160002060008b73ffffffffffffffffffffffffffffffffffffffff1673ffffffffffffffffffffffffffffffffffffffff168152602001908152602001600020819055508560008089815260200190815260200160002060008a73ffffffffffffffffffffffffffffffffffffffff1673ffffffffffffffffffffffffffffffffffffffff1681526020019081526020016000206000828254610bf991906124ba565b925050819055508773ffffffffffffffffffffffffffffffffffffffff168973ffffffffffffffffffffffffffffffffffffffff168573ffffffffffffffffffffffffffffffffffffffff167fc3d58168c5ae7397731d063d5bbf3d657854427343f4c083240f7aacaa2d0f628a8a604051610c769291906124ee565b60405180910390a4610c8c848a8a86868a6111bc565b610c9a848a8a8a8a8a6111c4565b505050505050505050565b600033905090565b8151835114610cf1576040517f08c379a0000000000000000000000000000000000000000000000000000000008152600401610ce890612589565b60405180910390fd5b600073ffffffffffffffffffffffffffffffffffffffff168473ffffffffffffffffffffffffffffffffffffffff1603610d60576040517f08c379a0000000000000000000000000000000000000000000000000000000008152600401610d5790612408565b60405180910390fd5b6000610d6a610ca5565b9050610d7a8187878787876111b4565b60005b8451811015610f2b576000858281518110610d9b57610d9a6122f0565b5b602002602001015190506000858381518110610dba57610db96122f0565b5b60200260200101519050600080600084815260200190815260200160002060008b73ffffffffffffffffffffffffffffffffffffffff1673ffffffffffffffffffffffffffffffffffffffff16815260200190815260200160002054905081811015610e5b576040517f08c379a0000000000000000000000000000000000000000000000000000000008152600401610e529061249a565b60405180910390fd5b81810360008085815260200190815260200160002060008c73ffffffffffffffffffffffffffffffffffffffff1673ffffffffffffffffffffffffffffffffffffffff168152602001908152602001600020819055508160008085815260200190815260200160002060008b73ffffffffffffffffffffffffffffffffffffffff1673ffffffffffffffffffffffffffffffffffffffff1681526020019081526020016000206000828254610f1091906124ba565b9250508190555050505080610f249061234e565b9050610d7d565b508473ffffffffffffffffffffffffffffffffffffffff168673ffffffffffffffffffffffffffffffffffffffff168273ffffffffffffffffffffffffffffffffffffffff167f4a39dc06d4c0dbc64b70af90fd698a233a518aa5d07e595d983b8c0526c8f7fb8787604051610fa29291906125a9565b60405180910390a4610fb88187878787876111bc565b610fc681878787878761139b565b505050505050565b8173ffffffffffffffffffffffffffffffffffffffff168373ffffffffffffffffffffffffffffffffffffffff160361103c576040517f08c379a000000000000000000000000000000000000000000000000000000000815260040161103390612652565b60405180910390fd5b80600160008573ffffffffffffffffffffffffffffffffffffffff1673ffffffffffffffffffffffffffffffffffffffff16815260200190815260200160002060008473ffffffffffffffffffffffffffffffffffffffff1673ffffffffffffffffffffffffffffffffffffffff16815260200190815260200160002060006101000a81548160ff0219169083151502179055508173ffffffffffffffffffffffffffffffffffffffff168373ffffffffffffffffffffffffffffffffffffffff167f17307eab39ab6107e8899845ad3d59bd9653f200f220920489ca2b5937696c318360405161112d9190611724565b60405180910390a3505050565b60606000600167ffffffffffffffff81111561115957611158611828565b5b6040519080825280602002602001820160405280156111875781602001602082028036833780820191505090505b509050828160008151811061119f5761119e6122f0565b5b60200260200101818152505080915050919050565b505050505050565b505050505050565b6111e38473ffffffffffffffffffffffffffffffffffffffff1661097d565b15611393578373ffffffffffffffffffffffffffffffffffffffff1663f23a6e6187878686866040518663ffffffff1660e01b81526004016112299594939291906126c7565b6020604051808303816000875af192505050801561126557506040513d601f19601f820116820180604052508101906112629190612736565b60015b61130a57611271612770565b806308c379a0036112cd5750611285612792565b8061129057506112cf565b806040517f08c379a00000000000000000000000000000000000000000000000000000000081526004016112c491906117fc565b60405180910390fd5b505b6040517f08c379a000000000000000000000000000000000000000000000000000000000815260040161130190612894565b60405180910390fd5b63f23a6e6160e01b7bffffffffffffffffffffffffffffffffffffffffffffffffffffffff1916817bffffffffffffffffffffffffffffffffffffffffffffffffffffffff191614611391576040517f08c379a000000000000000000000000000000000000000000000000000000000815260040161138890612926565b60405180910390fd5b505b505050505050565b6113ba8473ffffffffffffffffffffffffffffffffffffffff1661097d565b1561156a578373ffffffffffffffffffffffffffffffffffffffff1663bc197c8187878686866040518663ffffffff1660e01b8152600401611400959493929190612946565b6020604051808303816000875af192505050801561143c57506040513d601f19601f820116820180604052508101906114399190612736565b60015b6114e157611448612770565b806308c379a0036114a4575061145c612792565b8061146757506114a6565b806040517f08c379a000000000000000000000000000000000000000000000000000000000815260040161149b91906117fc565b60405180910390fd5b505b6040517f08c379a00000000000000000000000000000000000000000000000000000000081526004016114d890612894565b60405180910390fd5b63bc197c8160e01b7bffffffffffffffffffffffffffffffffffffffffffffffffffffffff1916817bffffffffffffffffffffffffffffffffffffffffffffffffffffffff191614611568576040517f08c379a000000000000000000000000000000000000000000000000000000000815260040161155f90612926565b60405180910390fd5b505b505050505050565b6000604051905090565b600080fd5b600080fd5b600073ffffffffffffffffffffffffffffffffffffffff82169050919050565b60006115b182611586565b9050919050565b6115c1816115a6565b81146115cc57600080fd5b50565b6000813590506115de816115b8565b92915050565b6000819050919050565b6115f7816115e4565b811461160257600080fd5b50565b600081359050611614816115ee565b92915050565b600080604083850312156116315761163061157c565b5b600061163f858286016115cf565b925050602061165085828601611605565b9150509250929050565b611663816115e4565b82525050565b600060208201905061167e600083018461165a565b92915050565b60007fffffffff0000000000000000000000000000000000000000000000000000000082169050919050565b6116b981611684565b81146116c457600080fd5b50565b6000813590506116d6816116b0565b92915050565b6000602082840312156116f2576116f161157c565b5b6000611700848285016116c7565b91505092915050565b60008115159050919050565b61171e81611709565b82525050565b60006020820190506117396000830184611715565b92915050565b6000602082840312156117555761175461157c565b5b600061176384828501611605565b91505092915050565b600081519050919050565b600082825260208201905092915050565b60005b838110156117a657808201518184015260208101905061178b565b60008484015250505050565b6000601f19601f8301169050919050565b60006117ce8261176c565b6117d88185611777565b93506117e8818560208601611788565b6117f1816117b2565b840191505092915050565b6000602082019050818103600083015261181681846117c3565b905092915050565b600080fd5b600080fd5b7f4e487b7100000000000000000000000000000000000000000000000000000000600052604160045260246000fd5b611860826117b2565b810181811067ffffffffffffffff8211171561187f5761187e611828565b5b80604052505050565b6000611892611572565b905061189e8282611857565b919050565b600067ffffffffffffffff8211156118be576118bd611828565b5b6118c7826117b2565b9050602081019050919050565b82818337600083830152505050565b60006118f66118f1846118a3565b611888565b90508281526020810184848401111561191257611911611823565b5b61191d8482856118d4565b509392505050565b600082601f83011261193a5761193961181e565b5b813561194a8482602086016118e3565b91505092915050565b600080600080600060a0868803121561196f5761196e61157c565b5b600061197d888289016115cf565b955050602061198e888289016115cf565b945050604061199f88828901611605565b93505060606119b088828901611605565b925050608086013567ffffffffffffffff8111156119d1576119d0611581565b5b6119dd88828901611925565b9150509295509295909350565b600067ffffffffffffffff821115611a0557611a04611828565b5b602082029050602081019050919050565b600080fd5b6000611a2e611a29846119ea565b611888565b90508083825260208201905060208402830185811115611a5157611a50611a16565b5b835b81811015611a7a5780611a668882611605565b845260208401935050602081019050611a53565b5050509392505050565b600082601f830112611a9957611a9861181e565b5b8135611aa9848260208601611a1b565b91505092915050565b600067ffffffffffffffff821115611acd57611acc611828565b5b611ad6826117b2565b9050602081019050919050565b6000611af6611af184611ab2565b611888565b905082815260208101848484011115611b1257611b11611823565b5b611b1d8482856118d4565b509392505050565b600082601f830112611b3a57611b3961181e565b5b8135611b4a848260208601611ae3565b91505092915050565b600080600080600060a08688031215611b6f57611b6e61157c565b5b6000611b7d888289016115cf565b9550506020611b8e888289016115cf565b945050604086013567ffffffffffffffff811115611baf57611bae611581565b5b611bbb88828901611a84565b935050606086013567ffffffffffffffff811115611bdc57611bdb611581565b5b611be888828901611a84565b925050608086013567ffffffffffffffff811115611c0957611c08611581565b5b611c1588828901611b25565b9150509295509295909350565b600080600080600060a08688031215611c3e57611c3d61157c565b5b6000611c4c888289016115cf565b9550506020611c5d888289016115cf565b945050604086013567ffffffffffffffff811115611c7e57611c7d611581565b5b611c8a88828901611a84565b935050606086013567ffffffffffffffff811115611cab57611caa611581565b5b611cb788828901611a84565b925050608086013567ffffffffffffffff811115611cd857611cd7611581565b5b611ce488828901611925565b9150509295509295909350565b600067ffffffffffffffff821115611d0c57611d0b611828565b5b602082029050602081019050919050565b6000611d30611d2b84611cf1565b611888565b90508083825260208201905060208402830185811115611d5357611d52611a16565b5b835b81811015611d7c5780611d6888826115cf565b845260208401935050602081019050611d55565b5050509392505050565b600082601f830112611d9b57611d9a61181e565b5b8135611dab848260208601611d1d565b91505092915050565b60008060408385031215611dcb57611dca61157c565b5b600083013567ffffffffffffffff811115611de957611de8611581565b5b611df585828601611d86565b925050602083013567ffffffffffffffff811115611e1657611e15611581565b5b611e2285828601611a84565b9150509250929050565b600081519050919050565b600082825260208201905092915050565b6000819050602082019050919050565b611e61816115e4565b82525050565b6000611e738383611e58565b60208301905092915050565b6000602082019050919050565b6000611e9782611e2c565b611ea18185611e37565b9350611eac83611e48565b8060005b83811015611edd578151611ec48882611e67565b9750611ecf83611e7f565b925050600181019050611eb0565b5085935050505092915050565b60006020820190508181036000830152611f048184611e8c565b905092915050565b611f1581611709565b8114611f2057600080fd5b50565b600081359050611f3281611f0c565b92915050565b60008060408385031215611f4f57611f4e61157c565b5b6000611f5d858286016115cf565b9250506020611f6e85828601611f23565b9150509250929050565b60008060408385031215611f8f57611f8e61157c565b5b6000611f9d858286016115cf565b9250506020611fae858286016115cf565b9150509250929050565b600080600080600060a08688031215611fd457611fd361157c565b5b6000611fe2888289016115cf565b9550506020611ff3888289016115cf565b945050604061200488828901611605565b935050606061201588828901611605565b925050608086013567ffffffffffffffff81111561203657612035611581565b5b61204288828901611b25565b9150509295509295909350565b7f455243313135353a2061646472657373207a65726f206973206e6f742061207660008201527f616c6964206f776e657200000000000000000000000000000000000000000000602082015250565b60006120ab602a83611777565b91506120b68261204f565b604082019050919050565b600060208201905081810360008301526120da8161209e565b9050919050565b7f4e487b7100000000000000000000000000000000000000000000000000000000600052602260045260246000fd5b6000600282049050600182168061212857607f821691505b60208210810361213b5761213a6120e1565b5b50919050565b61214a816115a6565b82525050565b60006060820190506121656000830186612141565b612172602083018561165a565b61217f604083018461165a565b949350505050565b7f455243313135353a2063616c6c6572206973206e6f7420746f6b656e206f776e60008201527f6572206f7220617070726f766564000000000000000000000000000000000000602082015250565b60006121e3602e83611777565b91506121ee82612187565b604082019050919050565b60006020820190508181036000830152612212816121d6565b9050919050565b600060608201905061222e6000830186612141565b81810360208301526122408185611e8c565b905081810360408301526122548184611e8c565b9050949350505050565b7f455243313135353a206163636f756e747320616e6420696473206c656e67746860008201527f206d69736d617463680000000000000000000000000000000000000000000000602082015250565b60006122ba602983611777565b91506122c58261225e565b604082019050919050565b600060208201905081810360008301526122e9816122ad565b9050919050565b7f4e487b7100000000000000000000000000000000000000000000000000000000600052603260045260246000fd5b7f4e487b7100000000000000000000000000000000000000000000000000000000600052601160045260246000fd5b6000612359826115e4565b91507fffffffffffffffffffffffffffffffffffffffffffffffffffffffffffffffff820361238b5761238a61231f565b5b600182019050919050565b7f455243313135353a207472616e7366657220746f20746865207a65726f20616460008201527f6472657373000000000000000000000000000000000000000000000000000000602082015250565b60006123f2602583611777565b91506123fd82612396565b604082019050919050565b60006020820190508181036000830152612421816123e5565b9050919050565b7f455243313135353a20696e73756666696369656e742062616c616e636520666f60008201527f72207472616e7366657200000000000000000000000000000000000000000000602082015250565b6000612484602a83611777565b915061248f82612428565b604082019050919050565b600060208201905081810360008301526124b381612477565b9050919050565b60006124c5826115e4565b91506124d0836115e4565b92508282019050808211156124e8576124e761231f565b5b92915050565b6000604082019050612503600083018561165a565b612510602083018461165a565b9392505050565b7f455243313135353a2069647320616e6420616d6f756e7473206c656e6774682060008201527f6d69736d61746368000000000000000000000000000000000000000000000000602082015250565b6000612573602883611777565b915061257e82612517565b604082019050919050565b600060208201905081810360008301526125a281612566565b9050919050565b600060408201905081810360008301526125c38185611e8c565b905081810360208301526125d78184611e8c565b90509392505050565b7f455243313135353a2073657474696e6720617070726f76616c2073746174757360008201527f20666f722073656c660000000000000000000000000000000000000000000000602082015250565b600061263c602983611777565b9150612647826125e0565b604082019050919050565b6000602082019050818103600083015261266b8161262f565b9050919050565b600081519050919050565b600082825260208201905092915050565b600061269982612672565b6126a3818561267d565b93506126b3818560208601611788565b6126bc816117b2565b840191505092915050565b600060a0820190506126dc6000830188612141565b6126e96020830187612141565b6126f6604083018661165a565b612703606083018561165a565b8181036080830152612715818461268e565b90509695505050505050565b600081519050612730816116b0565b92915050565b60006020828403121561274c5761274b61157c565b5b600061275a84828501612721565b91505092915050565b60008160e01c9050919050565b600060033d111561278f5760046000803e61278c600051612763565b90505b90565b600060443d1061281f576127a4611572565b60043d036004823e80513d602482011167ffffffffffffffff821117156127cc57505061281f565b808201805167ffffffffffffffff8111156127ea575050505061281f565b80602083010160043d03850181111561280757505050505061281f565b61281682602001850186611857565b82955050505050505b90565b7f455243313135353a207472616e7366657220746f206e6f6e2d4552433131353560008201527f526563656976657220696d706c656d656e746572000000000000000000000000602082015250565b600061287e603483611777565b915061288982612822565b604082019050919050565b600060208201905081810360008301526128ad81612871565b9050919050565b7f455243313135353a204552433131353552656365697665722072656a6563746560008201527f6420746f6b656e73000000000000000000000000000000000000000000000000602082015250565b6000612910602883611777565b915061291b826128b4565b604082019050919050565b6000602082019050818103600083015261293f81612903565b9050919050565b600060a08201905061295b6000830188612141565b6129686020830187612141565b818103604083015261297a8186611e8c565b9050818103606083015261298e8185611e8c565b905081810360808301526129a2818461268e565b9050969550505050505056fea2646970667358221220925edcab2b1c83ecd5d3164268f3b9986edef5e168ac7fac95309824088bd83764736f6c6343000812003368747470733a2f2f676174657761792e70696e6174612e636c6f75642f697066732f516d5250484b6f4d476a47356363684d6671756945777469377665737432784e324431704d375570344a634e777a2f7b69647d2e6a736f6e",
  "linkReferences": {},
  "deployedLinkReferences": {}
}